{
  "_format": "hh-sol-artifact-1",
  "contractName": "ChessGame",
  "sourceName": "contracts/ChessGame.sol",
  "abi": [
    {
      "inputs": [],
      "stateMutability": "nonpayable",
      "type": "constructor"
    },
    {
      "anonymous": false,
      "inputs": [
        {
          "indexed": false,
          "internalType": "string",
          "name": "gameId",
          "type": "string"
        },
        {
          "indexed": false,
          "internalType": "address",
          "name": "white",
          "type": "address"
        },
        {
          "indexed": false,
          "internalType": "uint256",
          "name": "stake",
          "type": "uint256"
        }
      ],
      "name": "GameCreated",
      "type": "event"
    },
    {
      "anonymous": false,
      "inputs": [
        {
          "indexed": false,
          "internalType": "string",
          "name": "gameId",
          "type": "string"
        },
        {
          "indexed": false,
          "internalType": "address",
          "name": "winner",
          "type": "address"
        },
        {
          "indexed": false,
          "internalType": "uint256",
          "name": "prize",
          "type": "uint256"
        }
      ],
      "name": "GameEnded",
      "type": "event"
    },
    {
      "anonymous": false,
      "inputs": [
        {
          "indexed": false,
          "internalType": "string",
          "name": "gameId",
          "type": "string"
        },
        {
          "indexed": false,
          "internalType": "address",
          "name": "black",
          "type": "address"
        }
      ],
      "name": "GameJoined",
      "type": "event"
    },
    {
      "anonymous": false,
      "inputs": [
        {
          "indexed": true,
          "internalType": "address",
          "name": "previousOwner",
          "type": "address"
        },
        {
          "indexed": true,
          "internalType": "address",
          "name": "newOwner",
          "type": "address"
        }
      ],
      "name": "OwnershipTransferred",
      "type": "event"
    },
    {
      "inputs": [
        {
          "internalType": "string",
          "name": "gameId",
          "type": "string"
        }
      ],
      "name": "createGame",
      "outputs": [],
      "stateMutability": "payable",
      "type": "function"
    },
    {
      "inputs": [
        {
          "internalType": "string",
          "name": "gameId",
          "type": "string"
        },
        {
          "internalType": "address",
          "name": "winner",
          "type": "address"
        }
      ],
      "name": "endGame",
      "outputs": [],
      "stateMutability": "nonpayable",
      "type": "function"
    },
    {
      "inputs": [
        {
          "internalType": "string",
          "name": "",
          "type": "string"
        }
      ],
      "name": "games",
      "outputs": [
        {
          "internalType": "address",
          "name": "white",
          "type": "address"
        },
        {
          "internalType": "address",
          "name": "black",
          "type": "address"
        },
        {
          "internalType": "uint256",
          "name": "stake",
          "type": "uint256"
        },
        {
          "internalType": "bool",
          "name": "isActive",
          "type": "bool"
        },
        {
          "internalType": "address",
          "name": "winner",
          "type": "address"
        },
        {
          "internalType": "uint256",
          "name": "startTime",
          "type": "uint256"
        }
      ],
      "stateMutability": "view",
      "type": "function"
    },
    {
      "inputs": [
        {
          "internalType": "string",
          "name": "gameId",
          "type": "string"
        }
      ],
      "name": "joinGame",
      "outputs": [],
      "stateMutability": "payable",
      "type": "function"
    },
    {
      "inputs": [],
      "name": "owner",
      "outputs": [
        {
          "internalType": "address",
          "name": "",
          "type": "address"
        }
      ],
      "stateMutability": "view",
      "type": "function"
    },
    {
      "inputs": [],
      "name": "ownerFeePercentage",
      "outputs": [
        {
          "internalType": "uint256",
          "name": "",
          "type": "uint256"
        }
      ],
      "stateMutability": "view",
      "type": "function"
    },
    {
      "inputs": [
        {
          "internalType": "address",
          "name": "",
          "type": "address"
        }
      ],
      "name": "playerEarnings",
      "outputs": [
        {
          "internalType": "uint256",
          "name": "",
          "type": "uint256"
        }
      ],
      "stateMutability": "view",
      "type": "function"
    },
    {
      "inputs": [],
      "name": "renounceOwnership",
      "outputs": [],
      "stateMutability": "nonpayable",
      "type": "function"
    },
    {
      "inputs": [
        {
          "internalType": "address",
          "name": "newOwner",
          "type": "address"
        }
      ],
      "name": "transferOwnership",
      "outputs": [],
      "stateMutability": "nonpayable",
      "type": "function"
    },
    {
      "inputs": [],
      "name": "withdrawEarnings",
      "outputs": [],
      "stateMutability": "nonpayable",
      "type": "function"
    },
    {
      "inputs": [],
      "name": "withdrawOwnerFees",
      "outputs": [],
      "stateMutability": "nonpayable",
      "type": "function"
    }
  ],
  "bytecode": "0x6080604052600560045534801561001557600080fd5b5061003261002761003e60201b60201c565b61004660201b60201c565b6001808190555061010a565b600033905090565b60008060009054906101000a900473ffffffffffffffffffffffffffffffffffffffff169050816000806101000a81548173ffffffffffffffffffffffffffffffffffffffff021916908373ffffffffffffffffffffffffffffffffffffffff1602179055508173ffffffffffffffffffffffffffffffffffffffff168173ffffffffffffffffffffffffffffffffffffffff167f8be0079c531659141344cd1fd0a4f28419497f9722a3daafe3b4186f6b6457e060405160405180910390a35050565b611bcd806101196000396000f3fe60806040526004361061009c5760003560e01c80636d20931a116100645780636d20931a14610158578063715018a61461019a5780637753af3e146101b15780638da5cb5b146101da578063b73c6ce914610205578063f2fde38b1461021c5761009c565b80630a9ef34c146100a15780631cb398c2146100b85780632ebc0504146100e35780633d536a2e146100ff57806369f927731461011b575b600080fd5b3480156100ad57600080fd5b506100b6610245565b005b3480156100c457600080fd5b506100cd61035a565b6040516100da9190611033565b60405180910390f35b6100fd60048036038101906100f891906110c7565b610360565b005b610119600480360381019061011491906110c7565b610636565b005b34801561012757600080fd5b50610142600480360381019061013d9190611172565b610849565b60405161014f9190611033565b60405180910390f35b34801561016457600080fd5b5061017f600480360381019061017a91906112e0565b610861565b60405161019196959493929190611353565b60405180910390f35b3480156101a657600080fd5b506101af610920565b005b3480156101bd57600080fd5b506101d860048036038101906101d391906113b4565b6109a8565b005b3480156101e657600080fd5b506101ef610cc4565b6040516101fc9190611414565b60405180910390f35b34801561021157600080fd5b5061021a610ced565b005b34801561022857600080fd5b50610243600480360381019061023e9190611172565b610e57565b005b61024d610f4e565b73ffffffffffffffffffffffffffffffffffffffff1661026b610cc4565b73ffffffffffffffffffffffffffffffffffffffff16146102c1576040517f08c379a00000000000000000000000000000000000000000000000000000000081526004016102b89061148c565b60405180910390fd5b600047905060008111610309576040517f08c379a0000000000000000000000000000000000000000000000000000000008152600401610300906114f8565b60405180910390fd5b610311610cc4565b73ffffffffffffffffffffffffffffffffffffffff166108fc829081150290604051600060405180830381858888f19350505050158015610356573d6000803e3d6000fd5b5050565b60045481565b600034116103a3576040517f08c379a000000000000000000000000000000000000000000000000000000000815260040161039a90611564565b60405180910390fd5b600073ffffffffffffffffffffffffffffffffffffffff16600283836040516103cd9291906115b4565b908152602001604051809103902060000160009054906101000a900473ffffffffffffffffffffffffffffffffffffffff1673ffffffffffffffffffffffffffffffffffffffff1614610455576040517f08c379a000000000000000000000000000000000000000000000000000000000815260040161044c90611619565b60405180910390fd5b6040518060c001604052803373ffffffffffffffffffffffffffffffffffffffff168152602001600073ffffffffffffffffffffffffffffffffffffffff168152602001348152602001600115158152602001600073ffffffffffffffffffffffffffffffffffffffff16815260200142815250600283836040516104db9291906115b4565b908152602001604051809103902060008201518160000160006101000a81548173ffffffffffffffffffffffffffffffffffffffff021916908373ffffffffffffffffffffffffffffffffffffffff16021790555060208201518160010160006101000a81548173ffffffffffffffffffffffffffffffffffffffff021916908373ffffffffffffffffffffffffffffffffffffffff1602179055506040820151816002015560608201518160030160006101000a81548160ff02191690831515021790555060808201518160030160016101000a81548173ffffffffffffffffffffffffffffffffffffffff021916908373ffffffffffffffffffffffffffffffffffffffff16021790555060a082015181600401559050507f132c99221e3a8bd54ab4759163b62794bddb60ad4f2dc5f1e3604a5fe03bae578282333460405161062a9493929190611666565b60405180910390a15050565b60006002838360405161064a9291906115b4565b90815260200160405180910390209050600073ffffffffffffffffffffffffffffffffffffffff168160000160009054906101000a900473ffffffffffffffffffffffffffffffffffffffff1673ffffffffffffffffffffffffffffffffffffffff16036106ed576040517f08c379a00000000000000000000000000000000000000000000000000000000081526004016106e4906116f2565b60405180910390fd5b600073ffffffffffffffffffffffffffffffffffffffff168160010160009054906101000a900473ffffffffffffffffffffffffffffffffffffffff1673ffffffffffffffffffffffffffffffffffffffff1614610780576040517f08c379a00000000000000000000000000000000000000000000000000000000081526004016107779061175e565b60405180910390fd5b806002015434146107c6576040517f08c379a00000000000000000000000000000000000000000000000000000000081526004016107bd906117ca565b60405180910390fd5b338160010160006101000a81548173ffffffffffffffffffffffffffffffffffffffff021916908373ffffffffffffffffffffffffffffffffffffffff1602179055507f69b91453edfa045ed34feb2b032d08b6c3333ec2404f18b285c7ce7ffe69ba5183833360405161083c939291906117ea565b60405180910390a1505050565b60036020528060005260406000206000915090505481565b6002818051602081018201805184825260208301602085012081835280955050505050506000915090508060000160009054906101000a900473ffffffffffffffffffffffffffffffffffffffff16908060010160009054906101000a900473ffffffffffffffffffffffffffffffffffffffff16908060020154908060030160009054906101000a900460ff16908060030160019054906101000a900473ffffffffffffffffffffffffffffffffffffffff16908060040154905086565b610928610f4e565b73ffffffffffffffffffffffffffffffffffffffff16610946610cc4565b73ffffffffffffffffffffffffffffffffffffffff161461099c576040517f08c379a00000000000000000000000000000000000000000000000000000000081526004016109939061148c565b60405180910390fd5b6109a66000610f56565b565b6109b0610f4e565b73ffffffffffffffffffffffffffffffffffffffff166109ce610cc4565b73ffffffffffffffffffffffffffffffffffffffff1614610a24576040517f08c379a0000000000000000000000000000000000000000000000000000000008152600401610a1b9061148c565b60405180910390fd5b600060028484604051610a389291906115b4565b908152602001604051809103902090508060030160009054906101000a900460ff16610a99576040517f08c379a0000000000000000000000000000000000000000000000000000000008152600401610a9090611868565b60405180910390fd5b8060000160009054906101000a900473ffffffffffffffffffffffffffffffffffffffff1673ffffffffffffffffffffffffffffffffffffffff168273ffffffffffffffffffffffffffffffffffffffff161480610b4657508060010160009054906101000a900473ffffffffffffffffffffffffffffffffffffffff1673ffffffffffffffffffffffffffffffffffffffff168273ffffffffffffffffffffffffffffffffffffffff16145b610b85576040517f08c379a0000000000000000000000000000000000000000000000000000000008152600401610b7c906118d4565b60405180910390fd5b60008160030160006101000a81548160ff021916908315150217905550818160030160016101000a81548173ffffffffffffffffffffffffffffffffffffffff021916908373ffffffffffffffffffffffffffffffffffffffff160217905550600060028260020154610bf89190611923565b90506000606460045483610c0c9190611923565b610c169190611994565b905060008183610c2691906119c5565b905080600360008773ffffffffffffffffffffffffffffffffffffffff1673ffffffffffffffffffffffffffffffffffffffff1681526020019081526020016000206000828254610c7791906119f9565b925050819055507ffe19dffae58b26bebdf0f9362f64c6e305eda567dd06dec08adc7457f65c00ea87878784604051610cb39493929190611666565b60405180910390a150505050505050565b60008060009054906101000a900473ffffffffffffffffffffffffffffffffffffffff16905090565b600260015403610d32576040517f08c379a0000000000000000000000000000000000000000000000000000000008152600401610d2990611a79565b60405180910390fd5b60026001819055506000600360003373ffffffffffffffffffffffffffffffffffffffff1673ffffffffffffffffffffffffffffffffffffffff16815260200190815260200160002054905060008111610dc1576040517f08c379a0000000000000000000000000000000000000000000000000000000008152600401610db890611ae5565b60405180910390fd5b6000600360003373ffffffffffffffffffffffffffffffffffffffff1673ffffffffffffffffffffffffffffffffffffffff168152602001908152602001600020819055503373ffffffffffffffffffffffffffffffffffffffff166108fc829081150290604051600060405180830381858888f19350505050158015610e4c573d6000803e3d6000fd5b505060018081905550565b610e5f610f4e565b73ffffffffffffffffffffffffffffffffffffffff16610e7d610cc4565b73ffffffffffffffffffffffffffffffffffffffff1614610ed3576040517f08c379a0000000000000000000000000000000000000000000000000000000008152600401610eca9061148c565b60405180910390fd5b600073ffffffffffffffffffffffffffffffffffffffff168173ffffffffffffffffffffffffffffffffffffffff1603610f42576040517f08c379a0000000000000000000000000000000000000000000000000000000008152600401610f3990611b77565b60405180910390fd5b610f4b81610f56565b50565b600033905090565b60008060009054906101000a900473ffffffffffffffffffffffffffffffffffffffff169050816000806101000a81548173ffffffffffffffffffffffffffffffffffffffff021916908373ffffffffffffffffffffffffffffffffffffffff1602179055508173ffffffffffffffffffffffffffffffffffffffff168173ffffffffffffffffffffffffffffffffffffffff167f8be0079c531659141344cd1fd0a4f28419497f9722a3daafe3b4186f6b6457e060405160405180910390a35050565b6000819050919050565b61102d8161101a565b82525050565b60006020820190506110486000830184611024565b92915050565b6000604051905090565b600080fd5b600080fd5b600080fd5b600080fd5b600080fd5b60008083601f84011261108757611086611062565b5b8235905067ffffffffffffffff8111156110a4576110a3611067565b5b6020830191508360018202830111156110c0576110bf61106c565b5b9250929050565b600080602083850312156110de576110dd611058565b5b600083013567ffffffffffffffff8111156110fc576110fb61105d565b5b61110885828601611071565b92509250509250929050565b600073ffffffffffffffffffffffffffffffffffffffff82169050919050565b600061113f82611114565b9050919050565b61114f81611134565b811461115a57600080fd5b50565b60008135905061116c81611146565b92915050565b60006020828403121561118857611187611058565b5b60006111968482850161115d565b91505092915050565b600080fd5b6000601f19601f8301169050919050565b7f4e487b7100000000000000000000000000000000000000000000000000000000600052604160045260246000fd5b6111ed826111a4565b810181811067ffffffffffffffff8211171561120c5761120b6111b5565b5b80604052505050565b600061121f61104e565b905061122b82826111e4565b919050565b600067ffffffffffffffff82111561124b5761124a6111b5565b5b611254826111a4565b9050602081019050919050565b82818337600083830152505050565b600061128361127e84611230565b611215565b90508281526020810184848401111561129f5761129e61119f565b5b6112aa848285611261565b509392505050565b600082601f8301126112c7576112c6611062565b5b81356112d7848260208601611270565b91505092915050565b6000602082840312156112f6576112f5611058565b5b600082013567ffffffffffffffff8111156113145761131361105d565b5b611320848285016112b2565b91505092915050565b61133281611134565b82525050565b60008115159050919050565b61134d81611338565b82525050565b600060c0820190506113686000830189611329565b6113756020830188611329565b6113826040830187611024565b61138f6060830186611344565b61139c6080830185611329565b6113a960a0830184611024565b979650505050505050565b6000806000604084860312156113cd576113cc611058565b5b600084013567ffffffffffffffff8111156113eb576113ea61105d565b5b6113f786828701611071565b9350935050602061140a8682870161115d565b9150509250925092565b60006020820190506114296000830184611329565b92915050565b600082825260208201905092915050565b7f4f776e61626c653a2063616c6c6572206973206e6f7420746865206f776e6572600082015250565b600061147660208361142f565b915061148182611440565b602082019050919050565b600060208201905081810360008301526114a581611469565b9050919050565b7f4e6f206665657320746f20776974686472617700000000000000000000000000600082015250565b60006114e260138361142f565b91506114ed826114ac565b602082019050919050565b60006020820190508181036000830152611511816114d5565b9050919050565b7f5374616b65206d7573742062652067726561746572207468616e203000000000600082015250565b600061154e601c8361142f565b915061155982611518565b602082019050919050565b6000602082019050818103600083015261157d81611541565b9050919050565b600081905092915050565b600061159b8385611584565b93506115a8838584611261565b82840190509392505050565b60006115c182848661158f565b91508190509392505050565b7f47616d6520616c72656164792065786973747300000000000000000000000000600082015250565b600061160360138361142f565b915061160e826115cd565b602082019050919050565b60006020820190508181036000830152611632816115f6565b9050919050565b6000611645838561142f565b9350611652838584611261565b61165b836111a4565b840190509392505050565b60006060820190508181036000830152611681818688611639565b90506116906020830185611329565b61169d6040830184611024565b95945050505050565b7f47616d6520646f6573206e6f7420657869737400000000000000000000000000600082015250565b60006116dc60138361142f565b91506116e7826116a6565b602082019050919050565b6000602082019050818103600083015261170b816116cf565b9050919050565b7f47616d6520616c72656164792066756c6c000000000000000000000000000000600082015250565b600061174860118361142f565b915061175382611712565b602082019050919050565b600060208201905081810360008301526117778161173b565b9050919050565b7f496e636f7272656374207374616b6520616d6f756e7400000000000000000000600082015250565b60006117b460168361142f565b91506117bf8261177e565b602082019050919050565b600060208201905081810360008301526117e3816117a7565b9050919050565b60006040820190508181036000830152611805818587611639565b90506118146020830184611329565b949350505050565b7f47616d65206e6f74206163746976650000000000000000000000000000000000600082015250565b6000611852600f8361142f565b915061185d8261181c565b602082019050919050565b6000602082019050818103600083015261188181611845565b9050919050565b7f496e76616c69642077696e6e6572000000000000000000000000000000000000600082015250565b60006118be600e8361142f565b91506118c982611888565b602082019050919050565b600060208201905081810360008301526118ed816118b1565b9050919050565b7f4e487b7100000000000000000000000000000000000000000000000000000000600052601160045260246000fd5b600061192e8261101a565b91506119398361101a565b92508282026119478161101a565b9150828204841483151761195e5761195d6118f4565b5b5092915050565b7f4e487b7100000000000000000000000000000000000000000000000000000000600052601260045260246000fd5b600061199f8261101a565b91506119aa8361101a565b9250826119ba576119b9611965565b5b828204905092915050565b60006119d08261101a565b91506119db8361101a565b92508282039050818111156119f3576119f26118f4565b5b92915050565b6000611a048261101a565b9150611a0f8361101a565b9250828201905080821115611a2757611a266118f4565b5b92915050565b7f5265656e7472616e637947756172643a207265656e7472616e742063616c6c00600082015250565b6000611a63601f8361142f565b9150611a6e82611a2d565b602082019050919050565b60006020820190508181036000830152611a9281611a56565b9050919050565b7f4e6f206561726e696e677320746f207769746864726177000000000000000000600082015250565b6000611acf60178361142f565b9150611ada82611a99565b602082019050919050565b60006020820190508181036000830152611afe81611ac2565b9050919050565b7f4f776e61626c653a206e6577206f776e657220697320746865207a65726f206160008201527f6464726573730000000000000000000000000000000000000000000000000000602082015250565b6000611b6160268361142f565b9150611b6c82611b05565b604082019050919050565b60006020820190508181036000830152611b9081611b54565b905091905056fea2646970667358221220da42bab4deed86f9aaf14bc08f2ee2a16e3019b4ad3f3b9c6b2ef44700c024c064736f6c63430008140033",
  "linkReferences": {},
  "deployedLinkReferences": {}
}